:020000020000FC
:100000000C940300789408E00EBF0FEF0DBF02E0E0
:1000100004B908E305B901E00093810093B1983376
:1000200011F40E942F00903311F40E944500983281
:1000300011F40E945B00903211F40E94710098311B
:1000400011F40E948700903111F40E949D009830B5
:1000500011F40E94B300903009F70E94C90000E03B
:1000600093B1983309F008950093840010918400AF
:10007000299A13951D30E1F70093840010918400B4
:10008000299813951D30E1F7EACF00E093B1903342
:1000900009F008950093840010918400299A139523
:1000A0001830E1F70093840010918400299813958B
:1000B0001830E1F7EACF00E093B1983209F00895E3
:1000C0000093840010918400299A13951730E1F76A
:1000D0000093840010918400299813951630E1F75D
:1000E000EACF00E093B1903209F0089500938400C4
:1000F00010918400299A13951530E1F7009384003C
:1001000010918400299813951530E1F7EACF00E0AB
:1001100093B1983109F00895009384001091840000
:10012000299A13951530E1F700938400109184000B
:10013000299813951430E1F7EACF00E093B190319C
:1001400009F008950093840010918400299A139572
:100150001530E1F7009384001091840029981395DD
:100160001330E1F7EACF00E093B1983009F0089539
:100170000093840010918400299A13951430E1F7BC
:100180000093840010918400299813951330E1F7AF
:10019000EACF00E093B1903009F008950093840015
:1001A00010918400299A13951330E1F7009384008D
:0E01B00010918400299813951330E1F7EACFDF
:00000001FF
